S01600004C43445F323032325F30315F32352E7372656390
S11300000C943E000C9450000C9450000C9450003E
S11300100C9450000C9450000C9450000C9450001C
S11300200C9450000C9450000C9450000C9450000C
S11300300C9450000C9450000C9450000C945000FC
S11300400C9450000C9450000C9450000C945000EC
S11300500C9450000C9450000C9450000C945000DC
S11300600C9450000C9450000C9450000C945000CC
S11300700C9450000C9450000C94500011241FBE9A
S1130080CFEFD8E0DEBFCDBF21E0A0E0B1E001C0FA
S11300901D92A030B207E1F70E9482000C949100F7
S11300A00C94000011B812B800000000089540B18B
S11300B0282F30E02150310981E090E002C0880F00
S11300C0991F2A95E2F792B1892B82B900000000AA
S11300D081B1842381B9000000000895282F30E005
S11300E02150310981E090E002C0880F991F2A95C0
S11300F0E2F792B1982B92B991B1892B81B90000A2
S11301000000089581E00E94570086E00E946E007E
S113011082E00E946E0081E00E9457000E9452001B
S1090120F1CFF894FFCFBB
S9030000FC
