S01600004C43445F323032325F30315F32352E7372656390
S11300000C943E000C9450000C9450000C9450003E
S11300100C9450000C9450000C9450000C9450001C
S11300200C9450000C9450000C9450000C9450000C
S11300300C9450000C9450000C9450000C945000FC
S11300400C9450000C9450000C9450000C945000EC
S11300500C9450000C9450000C9450000C945000DC
S11300600C9450000C9450000C9450000C945000CC
S11300700C9450000C9450000C94500011241FBE9A
S1130080CFEFD8E0DEBFCDBF21E0A0E0B1E001C0FA
S11300901D92A030B207E1F70E947D000C94870006
S11300A00C94000040B1282F30E02150310981E048
S11300B090E002C0880F991F2A95E2F792B1892B2C
S11300C082B90000000081B1842381B900000000DE
S11300D00895282F30E02150310981E090E002C0DA
S11300E0880F991F2A95E2F792B1982B92B991B192
S11300F0892B81B900000000089587E00E94520016
S113010081E00E94690083E00E946900F6CFF894C0
S1050110FFCF1B
S9030000FC
