S01600004C43445F323032325F30315F32352E7372656390
S11300000C943E000C945B000C945B000C945B001D
S11300100C945B000C945B000C945B000C945B00F0
S11300200C945B000C945B000C945B000C945B00E0
S11300300C945B000C945B000C945B000C945B00D0
S11300400C945B000C945B000C945B000C945B00C0
S11300500C945B000C945B000C945B000C945B00B0
S11300600C945B000C945B000C945B000C945B00A0
S11300700C945B000C945B000C945B0011241FBE79
S1130080CFEFD8E0DEBFCDBF11E0A0E0B1E0E2EDFC
S1130090F0E002C005900D92A630B107D9F721E037
S11300A0A6E0B1E001C01D92A932B207E1F70E94B7
S11300B05D000C9467000C94000080E885B9E6E0CC
S11300C0F1E08DE4868F80E091E08083F6CFF894B0
S10500D0FFCF5C
S10900D24A6F6E69730021
S9030000FC
