S01600004C43445F323032325F30315F32352E7372656390
S11300000C943E000C9450000C9450000C9450003E
S11300100C9450000C9450000C9450000C9450001C
S11300200C9450000C9450000C9450000C9450000C
S11300300C9450000C9450000C9450000C945000FC
S11300400C9450000C9450000C9450000C945000EC
S11300500C9450000C9450000C9450000C945000DC
S11300600C9450000C9450000C9450000C945000CC
S11300700C9450000C9450000C94500011241FBE9A
S1130080CFEFD8E0DEBFCDBF21E0A0E0B1E001C0FA
S11300901D92A030B207E1F70E9465000C9469003C
S11300A00C940000282F30E02150310981E090E0C9
S11300B002C0880F991F2A95E2F792B1892B82B961
S11300C081B111B800000000089583E00E9452003D
S10900D0FCCFF894FFCF01
S9030000FC
